{
  "contractName": "RegisterFactory",
  "abi": [
    {
      "constant": true,
      "inputs": [],
      "name": "content",
      "outputs": [
        {
          "name": "",
          "type": "string"
        }
      ],
      "payable": false,
      "stateMutability": "view",
      "type": "function",
      "signature": "0x8a4d5a67"
    },
    {
      "constant": true,
      "inputs": [
        {
          "name": "",
          "type": "uint256"
        }
      ],
      "name": "tasks",
      "outputs": [
        {
          "name": "id",
          "type": "uint256"
        },
        {
          "name": "content",
          "type": "string"
        },
        {
          "name": "numReeggistro",
          "type": "uint256"
        },
        {
          "name": "owner",
          "type": "address"
        },
        {
          "name": "completed",
          "type": "bool"
        }
      ],
      "payable": false,
      "stateMutability": "view",
      "type": "function",
      "signature": "0x8d977672"
    },
    {
      "constant": true,
      "inputs": [],
      "name": "contagemDeOcorrs",
      "outputs": [
        {
          "name": "",
          "type": "uint256"
        }
      ],
      "payable": false,
      "stateMutability": "view",
      "type": "function",
      "signature": "0xf5682e8e"
    },
    {
      "inputs": [],
      "payable": false,
      "stateMutability": "nonpayable",
      "type": "constructor",
      "signature": "constructor"
    },
    {
      "anonymous": false,
      "inputs": [
        {
          "indexed": false,
          "name": "id",
          "type": "uint256"
        },
        {
          "indexed": false,
          "name": "content",
          "type": "string"
        },
        {
          "indexed": false,
          "name": "numReeggistro",
          "type": "uint256"
        },
        {
          "indexed": false,
          "name": "owner",
          "type": "address"
        },
        {
          "indexed": false,
          "name": "completed",
          "type": "bool"
        }
      ],
      "name": "TaskCreated",
      "type": "event",
      "signature": "0x66fbedd7e637e63c7eb33ef9c8491348435557ade2c8a7110f6a7b26e5e1a206"
    },
    {
      "anonymous": false,
      "inputs": [
        {
          "indexed": false,
          "name": "id",
          "type": "uint256"
        },
        {
          "indexed": false,
          "name": "content",
          "type": "string"
        },
        {
          "indexed": false,
          "name": "numReeggistro",
          "type": "uint256"
        },
        {
          "indexed": false,
          "name": "owner",
          "type": "address"
        },
        {
          "indexed": false,
          "name": "completed",
          "type": "bool"
        }
      ],
      "name": "TaskCompleted",
      "type": "event",
      "signature": "0x929881324ffc493c95d2b38bb6d028c8cc3e1c7a44a949476076da8ad4fe5a79"
    },
    {
      "constant": false,
      "inputs": [
        {
          "name": "_content",
          "type": "string"
        },
        {
          "name": "_numReeggistro",
          "type": "uint256"
        }
      ],
      "name": "createTask",
      "outputs": [],
      "payable": false,
      "stateMutability": "nonpayable",
      "type": "function",
      "signature": "0x04fe2b34"
    }
  ],
  "bytecode": "0x6080604052600060015534801561001557600080fd5b506040805160608101825260248082527f50726f6a65746f2041706c696361646f2c20494754492c204d616e6f656c2053602083019081527f6f757a6100000000000000000000000000000000000000000000000000000000929093019190915261008291600091610088565b50610123565b828054600181600116156101000203166002900490600052602060002090601f016020900481019282601f106100c957805160ff19168380011785556100f6565b828001600101855582156100f6579182015b828111156100f65782518255916020019190600101906100db565b50610102929150610106565b5090565b61012091905b80821115610102576000815560010161010c565b90565b6106ac806101326000396000f3fe6080604052600436106100615763ffffffff7c010000000000000000000000000000000000000000000000000000000060003504166304fe2b3481146100665780638a4d5a671461011d5780638d977672146101a7578063f5682e8e1461027c575b600080fd5b34801561007257600080fd5b5061011b6004803603604081101561008957600080fd5b8101906020810181356401000000008111156100a457600080fd5b8201836020820111156100b657600080fd5b803590602001918460018302840111640100000000831117156100d857600080fd5b91908080601f01602080910402602001604051908101604052809392919081815260200183838082843760009201919091525092955050913592506102a3915050565b005b34801561012957600080fd5b5061013261046d565b6040805160208082528351818301528351919283929083019185019080838360005b8381101561016c578181015183820152602001610154565b50505050905090810190601f1680156101995780820380516001836020036101000a031916815260200191505b509250505060405180910390f35b3480156101b357600080fd5b506101d1600480360360208110156101ca57600080fd5b50356104fb565b6040805186815290810184905273ffffffffffffffffffffffffffffffffffffffff83166060820152811515608082015260a06020808301828152875192840192909252865160c084019188019080838360005b8381101561023d578181015183820152602001610225565b50505050905090810190601f16801561026a5780820380516001836020036101000a031916815260200191505b50965050505050505060405180910390f35b34801561028857600080fd5b506102916105df565b60408051918252519081900360200190f35b81516000106102b157600080fd5b600081116102be57600080fd5b6001805481018082556040805160a08101825282815260208082018781528284018790523360608401526000608084018190529485526002825292909320815181559151805191949293610317938501929101906105e5565b506040828101516002830155606080840151600390930180546080958601511515740100000000000000000000000000000000000000000274ff00000000000000000000000000000000000000001973ffffffffffffffffffffffffffffffffffffffff90961673ffffffffffffffffffffffffffffffffffffffff19909216919091179490941693909317909255600154815181815291820185905233928201839052600093820184905260a0602080840182815288519285019290925287517f66fbedd7e637e63c7eb33ef9c8491348435557ade2c8a7110f6a7b26e5e1a2069693958995899591949193909260c0840191880190808383885b8381101561042b578181015183820152602001610413565b50505050905090810190601f1680156104585780820380516001836020036101000a031916815260200191505b50965050505050505060405180910390a15050565b6000805460408051602060026001851615610100026000190190941693909304601f810184900484028201840190925281815292918301828280156104f35780601f106104c8576101008083540402835291602001916104f3565b820191906000526020600020905b8154815290600101906020018083116104d657829003601f168201915b505050505081565b60026020818152600092835260409283902080546001808301805487519281161561010002600019011695909504601f81018590048502820185019096528581529094919390929091908301828280156105965780601f1061056b57610100808354040283529160200191610596565b820191906000526020600020905b81548152906001019060200180831161057957829003601f168201915b50505050600283015460039093015491929173ffffffffffffffffffffffffffffffffffffffff8116915074010000000000000000000000000000000000000000900460ff1685565b60015481565b828054600181600116156101000203166002900490600052602060002090601f016020900481019282601f1061062657805160ff1916838001178555610653565b82800160010185558215610653579182015b82811115610653578251825591602001919060010190610638565b5061065f929150610663565b5090565b61067d91905b8082111561065f5760008155600101610669565b9056fea165627a7a723058202158c8840ab395816cae73c242e24b06da855d8c75fda4e086e7381c60a13ee70029",
  "source": "pragma solidity ^0.5.0;\n\ncontract RegisterFactory {\n    string public content;\n    uint public contagemDeOcorrs = 0;\n    mapping(uint => Task) public tasks;\n\n    struct Task {\n        uint id;\n        string content;\n        uint numReeggistro;\n        address payable owner;\n        bool completed;\n    }\n\n    event TaskCreated(\n        uint id,\n        string content,\n        uint numReeggistro,\n        address payable owner,\n        bool completed\n    );\n\n    event TaskCompleted(\n        uint id,\n        string content,\n        uint numReeggistro,\n        address payable owner,\n        bool completed\n    );\n\n    constructor() public {\n        content = \"Projeto Aplicado, IGTI, Manoel Souza\";\n    }\n\n    function createTask(string memory _content, uint _numReeggistro) public {\n        // Require a valid content\n        require(bytes(_content).length > 0);\n        // Require a valid numReeggistro\n        require(_numReeggistro > 0);\n        // Increment product count\n        contagemDeOcorrs ++;\n        // Create the task\n        tasks[contagemDeOcorrs] = Task(contagemDeOcorrs, _content, _numReeggistro, msg.sender, false);\n        // Trigger an event\n        emit TaskCreated(contagemDeOcorrs, _content, _numReeggistro, msg.sender, false);\n    }\n\n\n}\n",
  "sourcePath": "C:/Users/Manoel/Desktop/Backup7/RegisterFactory/contracts/RegisterFactory.sol",
  "compiler": {
    "name": "solc",
    "version": "0.5.0+commit.1d4f565a.Emscripten.clang"
  },
  "schemaVersion": "3.0.2",
  "updatedAt": "2020-12-04T22:17:19.677Z",
  "devdoc": {
    "methods": {}
  },
  "userdoc": {
    "methods": {}
  }
}